:100000000C9446000C9465000C9465000C946500FB
:100010000C9465000C9465000C9465000C946500CC
:100020000C9465000C9465000C9465000C946500BC
:100030000C9465000C9470010C9465000C946500A0
:100040000C9465000C9465000C9465000C9465009C
:100050000C9465000C9465000C9465000C9465008C
:100060000C9465000C9465000C9465000C9465007C
:100070000C9465000C9465000C9465000C9465006C
:100080000C9465000C9465000C94650011241FBE4F
:10009000CFEFD0E4DEBFCDBF11E0A0E0B1E0E0E8FB
:1000A000FDE000E00BBF02C007900D92A835B1073C
:1000B000D9F721E0A8E5B1E001C01D92AE36B20744
:1000C000E1F70E94BB020C94BE060C940000CF9393
:1000D000DF9300D01F92CDB7DEB789837B836A831D
:1000E00089818A3031F48A819B81BC018DE00E9434
:1000F000670080EC90E0FC018081882F90E08072A6
:100100009927892BB1F386EC90E02981FC012083AB
:1001100080E090E00F900F900F90DF91CF910895C5
:10012000CF93DF9300D000D0CDB7DEB78B836C8345
:100130001A82198233C08C81882331F488E290E0DE
:1001400028E0FC01208308C08C81813029F488E2FA
:1001500090E020E2FC01208388E290E028E230E099
:10016000F9012081422F2B81222F30E0098002C02B
:10017000359527950A94E2F72170242BFC01208302
:1001800088E290E028E230E0F90120812260FC0161
:10019000208389819A8101969A83898389819A81B2
:1001A00008974CF28C81882351F488E290E028E291
:1001B00030E0F90120812460FC0120830CC08C8197
:1001C000813049F488E290E028E230E0F9012081B2
:1001D0002061FC01208388E290E0FC011082000095
:1001E0000F900F900F900F90DF91CF910895CF93C4
:1001F000DF93CDB7DEB78AE790E02AE730E0F90178
:100200002081206EFC0120830000DF91CF910895B2
:10021000CF93DF931F92CDB7DEB789838CE790E051
:100220002981283028F02CE730E0F901208101C035
:100230002981FC01208310925E0106C0000080919C
:100240005E018F5F80935E0180915E018F30B0F31D
:1002500000000F90DF91CF910895CF93DF93CDB73A
:10026000DEB781E890E02BE0FC01208388E890E095
:100270002DE730E0FC01318320838FE690E022E01F
:10028000FC01208384E890E0FC01118210828091BF
:100290000E0190910F01A0911001B0911101809376
:1002A000580190935901A0935A01B0935B018FE5D7
:1002B00090E02FE530E0F90120812068FC012083E7
:1002C0000000DF91CF910895CF93DF93CDB7DEB7D4
:1002D00081E890E0FC0110820000DF91CF91089549
:1002E0001F920F9200905F000F92112400905B000C
:1002F0000F922F933F934F935F936F937F938F93BF
:100300009F93AF93BF93EF93FF93CF93DF93CDB7BB
:10031000DEB78091580190915901A0915A01B09196
:100320005B010197A109B10980935801909359018C
:10033000A0935A01B0935B018091580190915901AB
:10034000A0915A01B0915B01892B8A2B8B2B91F4E0
:100350000E94000280910E0190910F01A091100166
:10036000B09111018093580190935901A0935A01C3
:10037000B0935B010000DF91CF91FF91EF91BF91AE
:10038000AF919F918F917F916F915F914F913F912D
:100390002F910F9000925B000F9000925F000F90E2
:1003A0001F901895CF93DF9300D000D0CDB7DEB764
:1003B00069837A838B839C8389819A81AB81BC8199
:1003C00080930E0190930F01A0931001B09311013F
:1003D00080910E0190910F01A0911001B091110137
:1003E0008093580190935901A0935A01B0935B01F7
:1003F00000000F900F900F900F90DF91CF91089514
:100400000F931F93CF93DF931F92CDB7DEB719825F
:10041000A6C08981282F30E0C901880F991F820F5B
:10042000931F880F991F880F991F8A599E4FFC01AF
:1004300020813181428153818981682F70E0CB0115
:10044000880F991F860F971F880F991F880F991F74
:100450008E599E4FFC0180819181A281B381281722
:1004600039074A075B0708F449C08981082F10E063
:100470008981282F30E0C901880F991F820F931FAF
:10048000880F991F880F991F86599E4FFC01408144
:1004900051818981282F30E0C901880F991F820F6F
:1004A000931F880F991F880F991F805A9E4FFC0138
:1004B00080819181FA0109959C01C801880F991FDB
:1004C000800F911F880F991F880F991F805A9E4F88
:1004D000FC01318320838981282F30E0C901880FF6
:1004E000991F820F931F880F991F880F991F8A5990
:1004F0009E4FFC0110821182128213828981682F23
:1005000070E08981282F30E0C901880F991F820F80
:10051000931F880F991F880F991F8A599E4FFC01BE
:1005200080819181A281B38121E030E040E050E000
:10053000280F391F4A1F5B1FCB01880F991F860F99
:10054000971F880F991F880F991F8A599E4FFC018A
:10055000208331834283538389818F5F898381E044
:100560009981981708F455CF00000F90DF91CF9133
:100570001F910F910895CF93DF931F92CDB7DEB7F0
:1005800084E290E027E0FC01208385E290E0FC011A
:1005900010828AE290E02FEFFC0120838BE290E052
:1005A000FC01108287E290E02FEFFC01208388E2BB
:1005B00090E0FC01108219820E94F7008981282FA7
:1005C00030E0C901880F991F820F931F880F991F70
:1005D000880F991F805A9E4FFC01118210828981D9
:1005E000682F70E021E030E040E050E0CB01880F60
:1005F000991F860F971F880F991F880F991F8E5973
:100600009E4FFC0120833183428353838981682F6D
:1006100070E08981282F30E0C901880F991F820F6F
:10062000931F880F991F880F991F8E599E4FFC01A9
:100630002081318142815381CB01880F991F860F20
:10064000971F880F991F880F991F8A599E4FFC0189
:1006500020833183428353838981282F30E0C9016D
:10066000880F991F820F931F880F991F880F991F5A
:1006700086599E4F2AE034E0FC0131832083898132
:100680008F5F89838981282F30E0C901880F991FE6
:10069000820F931F880F991F880F991F805A9E4FB2
:1006A000FC01118210828981682F70E02AEF30E00E
:1006B00040E050E0CB01880F991F860F971F880FED
:1006C000991F880F991F8E599E4FFC0120833183FB
:1006D000428353838981682F70E08981282F30E01D
:1006E000C901880F991F820F931F880F991F880FC8
:1006F000991F8E599E4FFC01208131814281538187
:10070000CB01880F991F860F971F880F991F880F9D
:10071000991F8A599E4FFC01208331834283538362
:100720008981282F30E0C901880F991F820F931FFC
:10073000880F991F880F991F86599E4F20E935E031
:10074000FC013183208389818F5F89838981282FF0
:1007500030E0C901880F991F820F931F880F991FDE
:10076000880F991F805A9E4FFC0111821082898147
:10077000682F70E02AEF30E040E050E0CB01880FB6
:10078000991F860F971F880F991F880F991F8E59E1
:100790009E4FFC0120833183428353838981682FDC
:1007A00070E08981282F30E0C901880F991F820FDE
:1007B000931F880F991F880F991F8E599E4FFC0118
:1007C0002081318142815381CB01880F991F860F8F
:1007D000971F880F991F880F991F8A599E4FFC01F8
:1007E00020833183428353838981282F30E0C901DC
:1007F000880F991F820F931F880F991F880F991FC9
:1008000086599E4F27E236E0FC01318320830E9407
:100810002D01FFCFCF93DF93CDB7DEB729970FB66A
:10082000F894DEBF0FBECDBF9987888725E0CE0143
:100830000396FC01322F11923A95E9F71A828885C6
:1008400099858230910599F0833091052CF40097B9
:1008500049F0019771F012C08330910561F004975F
:1008600061F00CC081E090E09987888707C00000A4
:1008700005C0000003C0000001C000008885998504
:100880008230910509F478C08330910534F40097E3
:1008900009F404C1019749F006C18330910509F4B8
:1008A000FFC0049709F4FEC0FEC088E08E838091EB
:1008B0001501882F90E020911501222F30E0AE0124
:1008C0004D5F5F4F240F351FF9012081422F406893
:1008D0009E012D5F3F4F820F931FFC01408380914B
:1008E00015018F5F8A838A81882F90E02A81222FC9
:1008F00030E0AE014D5F5F4F240F351FF9012081BD
:10090000422F40689E012D5F3F4F820F931FFC01D5
:10091000408380915D01882F90E020915D01222F1E
:1009200030E0AE014D5F5F4F240F351FF90120818C
:10093000422F41609E012D5F3F4F820F931FFC01AC
:10094000408380915D018F5F8A838A81882F90E048
:100950002A81222F30E0AE014D5F5F4F240F351FFB
:10096000F9012081422F41609E012D5F3F4F820F90
:10097000931FFC01408397C080915C01882F90E019
:100980008B5D9E4FFC018081882F90E0880F991F1E
:1009900082959295907F9827807F9827282F809125
:1009A0001201882F90E08B5D9E4FFC018081822B8D
:1009B0008B8380915C01882F90E0815D9E4FFC01CC
:1009C0008081882F90E0880F991F82959295907F63
:1009D0009827807F9827282F80911201882F90E0F8
:1009E000815D9E4FFC018081822B8C8380915C0114
:1009F000882F90E0875C9E4FFC018081882F90E0DB
:100A0000880F991F82959295907F9827807F9827CD
:100A1000282F80911201882F90E0875C9E4FFC0167
:100A20008081822B8D8380915C01882F90E08D5B8B
:100A30009E4FFC018081882F90E0880F991F82953E
:100A40009295907F9827807F9827282F8091120178
:100A5000882F90E08D5B9E4FFC018081822B8E83DE
:100A600080915C01882F90E0835B9E4FFC01808128
:100A7000882F90E0880F991F82959295907F9827F4
:100A8000807F9827282F80911201882F90E0835B28
:100A90009E4FFC018081822B8F8305C0000003C024
:100AA000000001C0000080915F01882F90E09E014E
:100AB0002D5F3F4F820F931FFC01808160E00E94F9
:100AC0009000198204C0000089818F5F8983898129
:100AD0008F30C8F380915F01282F30E081E090E0F3
:100AE00002C0880F991F2A95E2F7809561E00E9465
:100AF000900080915F01843030F480915F018F5FBE
:100B000080935F0102C010925F01888599852996C4
:100B10000FB6F894DEBF0FBECDBFDF91CF91089521
:100B2000CF93DF9300D000D000D0CDB7DEB79E8347
:100B30008D8380E00E94080188E790E0FC018081BD
:100B400091819C838B838D819E81892B09F070C05C
:100B50008B819C818333924050F0809116018230CA
:100B6000A0F0809116018695809316010EC08B81AE
:100B70009C818E3C914048F48091160188232CF092
:100B800080911601880F809316018B819C81925071
:100B90009A83898389819A8199233CF489819A81F6
:100BA0009195819591099A83898389819A81833C62
:100BB00091406CF084E690E0A0E0B0E080936E019C
:100BC00090936F01A0937001B093710130C089813F
:100BD0009A818D3291406CF08AEF90E0A0E0B0E015
:100BE00080936E0190936F01A0937001B093710197
:100BF0001EC089819A81873991056CF084EF91E05C
:100C0000A0E0B0E080936E0190936F01A09370011B
:100C1000B09371010CC088EE93E0A0E0B0E0809347
:100C20006E0190936F01A0937001B0937101000069
:100C30008091160180936D018D819E8126960FB65D
:100C4000F894DEBF0FBECDBFDF91CF910895CF9353
:100C5000DF9300D000D000D0CDB7DEB79E838D8368
:100C600081E00E94080188E790E0FC018081918189
:100C70009C838B838D819E81892B09F070C08B8131
:100C80009C818333924050F0809117018230A0F014
:100C9000809117018695809317010EC08B819C81EE
:100CA0008E3C914048F480911701803128F4809166
:100CB0001701880F809317018B819C8192509A8332
:100CC000898389819A8199233CF489819A819195BC
:100CD000819591099A83898389819A81833C914086
:100CE0006CF084E690E0A0E0B0E080937A0190930D
:100CF0007B01A0937C01B0937D0130C089819A81F2
:100D00008D3291406CF08AEF90E0A0E0B0E08093EB
:100D10007A0190937B01A0937C01B0937D011EC06A
:100D200089819A81873991056CF084EF91E0A0E088
:100D3000B0E080937A0190937B01A0937C01B09303
:100D40007D010CC088EE93E0A0E0B0E080937A01D2
:100D500090937B01A0937C01B0937D010000809172
:100D6000170180936C018D819E8126960FB6F894B1
:100D7000DEBF0FBECDBFDF91CF910895F894FFCFB6
:100D800000000002000000006700000000000100F9
:100D900000000403030310040101000000FA000036
:100DA00000010000000701070705070707070705FF
:100DB00001010105040401050505010707070707EF
:100DC00001070705010401010105010501070107EC
:080DD0000701070701070100FC
:00000001FF
